:100000000C942A000C9447000C9447000C94470071
:100010000C9447000C9447000C9447000C94470044
:100020000C9447000C947A040C9447000C944700FD
:100030000C9447000C9447000C9447000C94470024
:100040000C9495040C9447000C9447000C944700C2
:100050000C94470011241FBECFE5D8E0DEBFCDBF12
:1000600011E0A0E6B0E0ECEFF3E102C005900D92E4
:10007000AE32B107D9F721E0AEE2B1E001C01D9286
:10008000AC33B207E1F70E94CA040C94FC090C944B
:100090000000FC010FB6F8946091380170913901AD
:1000A00080913A0190913B010FBE309721F060831F
:1000B00071838283938308959C0183E083BF83E8E7
:1000C00008C082BF98B7916098BFA89508B600FE97
:1000D000FDCF21503109A8F713BE0895662311F012
:1000E000C09A01C0C098C19882BB8FEF81BBC29AF1
:1000F000000000000000C2980895C098C19A11BA8B
:1001000090B3C29A00000000000011BA90B3C298E8
:1001100099239CF30E946E000895B89AB99ABA9AEE
:1001200080E190E00E945C0060E080E30E946E004D
:1001300085E090E00E945C0060E080E30E946E0039
:1001400081E090E00E945C0060E08CE30E947D0012
:1001500060E08CE00E947D0060E086E00E947D000F
:1001600060E081E00E947D00089560E081E00E94EF
:100170007D000895CF93C62F98E2899FC00D11246A
:1001800060E082E00E947D00CC2331F060E084E1F9
:100190000E947D00C150D1F7CF910895CF93DF9396
:1001A000EC012196FC018081882331F061E00E94FE
:1001B0007D0089918111FACFDF91CF910895FC01E3
:1001C00010821182128213821582148280E197E2DA
:1001D00097838683118610868AE090E093878287D2
:1001E000158614861786168681E0808B08959C01FB
:1001F00082E083BF8BEF08C082BF98B7916098BF41
:10020000A89508B600FEFDCF21503109A8F713BE0E
:100210000895EF92FF920F931F93CF93DF9302E322
:1002200010E0D82FC92FDF9AFD2EEC2E8D2F9C2F9A
:100230000E94F700DF988D2F9C2F0E94F70001503D
:10024000110989F78AE090E00E945C00C2E3D0E0E7
:10025000DF9A8F2D9E2D0E94F700DF988F2D9E2D07
:100260000E94F7002197A1F7DF91CF911F910F9185
:10027000FF90EF900895FC01118210821282138288
:1002800014821582168217821086089514BA94B3C8
:100290006C5F7F4F21E030E0A90102C0440F551F81
:1002A0006A95E2F7492B44BB95B3082E02C0220F92
:1002B000331F0A94E2F7292B25BB23B330E002C099
:1002C000359527958A95E2F781E090E020FF02C0FE
:1002D00080E090E008950F931F93CF93DF9300E0A9
:1002E00010E018C0BE01C8010E944601009749F005
:1002F000000F111F000F111FC00FD11FCE0101965B
:100300000CC02196C430D10569F70F5F1F4F043030
:10031000110519F0C0E0D0E0E5CFDF91CF911F913A
:100320000F910895FC0111821082138212821582AE
:100330001482178216820895CF93DF93EC010E94F6
:100340009F0665E070E00E942B06009719F481E09B
:10035000888313C08130910519F481E089830DC031
:100360008230910519F481E08A8307C0039719F45C
:1003700081E08B8302C081E08883DF91CF91089573
:10038000FC01A62FB72F089661E070E041915191D2
:100390002D913D914217530721F02417350738F06E
:1003A000672FE817F90791F7862F90E0089582E00C
:1003B00090E00895B39B03C081E0FB018083089522
:1003C000B49B03C0FB011182089581E0FB0181838E
:1003D0000895CF93DF93EB01609132017091330167
:1003E00080E090E00E94C50520E030EC4FE753E448
:1003F0000E940206181614F481E08B83DF91CF91DE
:100400000895CF93609134017091350180E090E0C0
:100410000E94C505C1E02CEC3CE246E654E40E9493
:10042000020618160CF0C0E08C2FCF910895CF93E0
:10043000DF93EC010E946B01089721F41B861A865A
:1004400081E001C080E0DF91CF9108950F931F9369
:10045000CF938B01C42F0E9401028C1719F081E009
:10046000F8018283CF911F910F9108950F931F93ED
:10047000CF93DF93CDB7DEB760970FB6F894DEBFAA
:100480000FBECDBF8C0160E080E00E94BA00F80191
:100490008081813051F48FE0E4E6F0E0DE011196D6
:1004A00001900D928A95E1F741C0F8019281913057
:1004B00051F480E1E9E8F0E0DE01119601900D923F
:1004C0008A95E1F733C0F8012381213051F480E1AE
:1004D000E9E9F0E0DE01119601900D928A95E1F7CD
:1004E00025C0F8013181313051F48DE0E3E7F0E0CF
:1004F000DE01119601900D928A95E1F717C01F92C7
:100500001F921F922F931F929F931F928F9380E8A9
:1005100090E09F938F93CE0101969F938F930E94BB
:10052000AF060FB6F894DEBF0FBECDBFCE01019669
:100530000E94CE0060960FB6F894DEBF0FBECDBF0E
:10054000DF91CF911F910F910895FC01808181303F
:1005500011F4DC9A10C08281813011F4DB9A0BC057
:100560008381813011F4DD9A06C08181813019F4D4
:10057000DB9ADC9ADD9A84E690E00E945C00DB98CE
:10058000DC98DD980895FC018081813029F482E7B0
:1005900090E00E94090108958281813029F480E66B
:1005A00090E00E94090108958381813029F480E45C
:1005B00090E00E94090108958181813021F488E44E
:1005C00090E00E94090108950F931F93CF93DF934A
:1005D000CDB7DEB760970FB6F894DEBF0FBECDBFC4
:1005E0008C010E94B50060E081E00E94BA00F80131
:1005F00083858F9382858F9381858F9380858F9359
:1006000089EA90E09F938F938E010F5F1F4F1F9396
:100610000F930E94AF06C8010E94CE000FB6F89457
:10062000DEBF0FBECDBF60960FB6F894DEBF0FBE23
:10063000CDBFDF91CF911F910F9108957F928F923F
:100640009F92AF92BF92CF92DF92EF92FF920F9361
:100650001F93CF93DF93CDB7DEB760970FB6F894B3
:10066000DEBF0FBECDBF8C017B015A014901CA011B
:100670000E949201C7010E949201C5010E949C0143
:10068000C5010E943602C5010E94A502C5010E9453
:10069000C3020E940102782E181419040CF082C0C3
:1006A000C12CD12C82E390E00E945C00472DB70161
:1006B000C8010E942602B701C8010E94E901B701E2
:1006C000C8010E94DA01B701C8010E94E001C80117
:1006D0000E941702813009F489C0B501C7010E9448
:1006E000C0018130910561F5F80180859185019601
:1006F0009187808784859585019695878487C80131
:100700000E94E40260E080E00E94BA0080E1E1EC37
:10071000F0E0DE01119601900D928A95E1F7CE018D
:1007200001960E94CE00C4018C199D09893EF3E018
:100730009F0714F088EE93E00E945C0081E05BC0AC
:100740008230910539F5F801828593850197938769
:100750008287C8010E94E40260E080E00E94BA0043
:1007600080E1E1EDF0E0DE01119601900D928A95B5
:10077000E1F7CE0101960E94CE00C4018C199D09BB
:10078000893EF3E09F0714F088EE93E00E945C003E
:1007900080E031C022E3C20ED11CC814D9040CF48D
:1007A00081CF26C0B501C7010E94C0018D7F892B72
:1007B000E1F4F8018285938501979387828760E051
:1007C00080E00E94BA0080E1E1EDF0E0DE011196E8
:1007D00001900D928A95E1F7CE0101960E94CE001C
:1007E000C8010E94E40280E006C005C080E003C0AA
:1007F000892BD9F7DECF60960FB6F894DEBF0FBE17
:10080000CDBFDF91CF911F910F91FF90EF90DF90BF
:10081000CF90BF90AF909F908F907F900895EF9270
:10082000FF920F931F93CF93DF93CDB7DEB7A097BF
:100830000FB6F894DEBF0FBECDBF8C017B01CA019D
:100840000E949201C7010E949201F801E084F184A4
:10085000868597858E159F0510F4F786E686F80144
:10086000118610868AE090E0938782871586148629
:100870000E94B50060E080E00E94BA0081E1E1EEF4
:10088000F0E0DE01119601900D928A95E1F7CE011C
:1008900001960E94CE0060E081E00E94BA00FF92C3
:1008A000EF9282EF90E09F938F937E01F1E1EF0E44
:1008B000F11CFF92EF920E94AF06C7010E94CE008A
:1008C00088E893E10E945C0081E0F801808B0F9042
:1008D0000F900F900F900F900F90A0960FB6F89476
:1008E000DEBF0FBECDBFDF91CF911F910F91FF9063
:1008F000EF9008951F920F920FB60F9211248F93CD
:100900009F9380912E0190912F01019690932F013A
:1009100080932E0186EF92EC9DBD8CBD9F918F91AF
:100920000F900FBE0F901F9018951F920F920FB649
:100930000F9211242F933F938F939F93EF93FF93E5
:10094000809130019091310124B135B1FC01EE0F5D
:10095000FF1FEE5CFE4F31832083019683309105AB
:100960002CF4909331018093300104C01092310136
:100970001092300180913001806487B9369AFF91DE
:10098000EF919F918F913F912F910F900FBE0F90FC
:100990001F901895CF93DF93CDB7DEB7CA54D10916
:1009A0000FB6F894DEBF0FBECDBF80E090E00E948E
:1009B0004900CB010E94A4068FEB8ABB0E948D00E8
:1009C0008EB584608EBD8EE69FEA9DBD8CBD89B7D5
:1009D000846089BF80E487B9379A339A329A7894D1
:1009E000369ACE0101960E943B01CE010A960E94E2
:1009F000DF00CE014B960E949201CE0183960E94A9
:100A000092010F2EF1E1CF2EF1E0DF2EF02D7E01CD
:100A10008BE2E80EF11C8E2C9F2C0F2EF9EAAF2EE4
:100A2000F0E0BF2EF02D0E94B5008A8D813009F0D4
:100A300042C060E080E00E94BA0081E1E0E0F1E0C5
:100A4000DE01DB9601900D928A95E1F7CE01CB96FF
:100A50000E94CE0060E081E00E94BA00898D8F93F1
:100A6000888D8F93DF92CF92FF92EF920E94AF0614
:100A7000882D992D0E94CE000E946B010F900F903F
:100A80000F900F900F900F908430910519F481E032
:100A90008C8309C0892B39F48C81813021F41C822C
:100AA0001A8E0E94B50084E690E00E945C008A8D58
:100AB000813009F4BECF60E080E00E94BA0081E19D
:100AC000EDE1F1E0DE01DB9601900D928A95E1F710
:100AD000CE01CB960E94CE0060E081E00E94BA0079
:100AE0008D898F938C898F938B898F938A898F932C
:100AF000BF92AF92FF92EF920E94AF06882D992D80
:100B00000E94CE0088EB9BE00E945C000FB6F89438
:100B1000DEBF0FBECDBF08E813E133C09801AE01C0
:100B2000455E5F4FBE016D5D7F4FCE010A960E940C
:100B30001E03045611090C3291E0190710F40CE25F
:100B400011E081110FC08C899D89892BD1F4AE01F0
:100B5000455E5F4FBE016D5D7F4FCE010A960E94DC
:100B60000F0461CF8C899D89892B59F4AE01455EB4
:100B70005F4FBE016D5D7F4FCE010A960E940F044C
:100B800052CF8A8D882351F24ECFE89409C097FB4B
:100B90003EF490958095709561957F4F8F4F9F4F54
:100BA0009923A9F0F92F96E9BB279395F695879598
:100BB00077956795B795F111F8CFFAF4BB0F11F45B
:100BC00060FF1BC06F5F7F4F8F4F9F4F16C0882302
:100BD00011F096E911C0772321F09EE8872F762F38
:100BE00005C0662371F096E8862F70E060E02AF079
:100BF0009A95660F771F881FDAF7880F9695879565
:100C000097F908950E94070608F48FEF0895990F49
:100C10000008550FAA0BE0E8FEEF16161706E807C6
:100C2000F907C0F012161306E407F50798F0621BE7
:100C3000730B840B950B39F40A2661F0232B242BBC
:100C4000252B21F408950A2609F4A140A6958FEFDB
:100C5000811D811D089597FB072E16F4009407D07F
:100C600077FD09D00E943F0607FC05D03EF4909521
:100C700081959F4F0895709561957F4F0895AA1BA8
:100C8000BB1B51E107C0AA1FBB1FA617B70710F077
:100C9000A61BB70B881F991F5A95A9F780959095A9
:100CA000BC01CD0108958F929F92AF92BF92CF92D7
:100CB000DF92EF92FF92CF93DF93EC01688179810D
:100CC0008A819B81611571058105910521F464E29A
:100CD00079ED8BE597E02DE133EF41E050E00E94A4
:100CE000620949015A019B01AC01A7EAB1E40E94E3
:100CF00081096B017C01ACEEB4EFA50194010E9467
:100D00008F09DC01CB018C0D9D1DAE1DBF1DB7FFF2
:100D100003C00197A109B04888839983AA83BB8344
:100D20009F77DF91CF91FF90EF90DF90CF90BF90B2
:100D3000AF909F908F9008950E945306089580E68B
:100D400090E00E9453060895A0E0B0E08093600018
:100D500090936100A0936200B09363000895AEE0A9
:100D6000B0E0E5EBF6E00C94A2090D891E8986E05F
:100D70008C831A8309838FEF9FE79E838D83AE0157
:100D8000475E5F4F6F89788DCE0101960E94D10634
:100D9000EF81F885E00FF11F10822E96E4E00C94AD
:100DA000BE09ABE0B0E0E7EDF6E00C9494096C010D
:100DB0007B018A01FC0117821682838181FFCCC1ED
:100DC000CE0101963C01F6019381F70193FD8591D7
:100DD00093FF81917F01882309F4BAC1853239F4E8
:100DE00093FD859193FF81917F01853229F4B601AE
:100DF00090E00E94C808E7CF912C212C312CFFE114
:100E0000F315D8F08B3279F038F4803279F08332F0
:100E1000A1F4232D20611DC08D3261F0803369F46F
:100E2000232D216016C0832D8260382EE32DE460CF
:100E30003E2E2AC0F32DF8601DC037FC2DC020EDDA
:100E4000280F2A3040F08E32B9F436FC81C1232DB0
:100E50002064322E19C036FE06C08AE0989E200D0E
:100E60001124922E11C0EAE02E9E200D1124222E74
:100E7000F32DF0623F2E08C08C3621F4832D80685C
:100E8000382E02C0883641F4F70193FD859193FF17
:100E900081917F018111B3CF982F9F7D955493301D
:100EA00028F40C5F1F4F9FE399830DC0833631F008
:100EB000833771F0833509F059C021C0F801808172
:100EC00089830E5F1F4F88248394912C530113C094
:100ED0002801F2E04F0E511CF801A080B18036FECF
:100EE00003C0692D70E002C06FEF7FEFC5010E9463
:100EF000BD084C018201F32DFF773F2E16C028015B
:100F000022E0420E511CF801A080B18036FE03C0E1
:100F1000692D70E002C06FEF7FEFC5010E94B2083B
:100F20004C01F32DF0683F2E820133FC1BC0822D53
:100F300090E088169906B0F4B60180E290E00E9435
:100F4000C8082A94F4CFF50137FC859137FE8191CA
:100F50005F01B60190E00E94C80821102A9421E0A8
:100F6000821A91088114910471F7E8C0843611F057
:100F7000893641F5F80137FE07C0608171818281B1
:100F800093810C5F1F4F08C060817181072E000C98
:100F9000880B990B0E5F1F4FF32DFF763F2E97FFA7
:100FA00009C090958095709561957F4F8F4F9F4FA9
:100FB000F0683F2E2AE030E0A3010E940409882E49
:100FC000861845C0853731F4232D2F7EB22E2AE0B6
:100FD00030E025C0932D997FB92E8F36C1F018F4DB
:100FE000883579F0B5C0803719F0883721F0B0C066
:100FF000E92FE061BE2EB4FE0DC0FB2DF460BF2EC4
:1010000009C034FE0AC0292F2660B22E06C028E08F
:1010100030E005C020E130E002C020E132E0F8011C
:10102000B7FE07C060817181828193810C5F1F4F81
:1010300006C06081718180E090E00E5F1F4FA301C8
:101040000E940409882E8618FB2DFF773F2E36FE5E
:101050000DC0232D2E7FA22E891458F434FE0BC010
:1010600032FC09C0832D8E7EA82E05C0B82CA32C7F
:1010700003C0B82C01C0B92CA4FE0FC0FE01E80DBE
:10108000F11D8081803321F49A2D997EA92E09C00B
:10109000A2FE06C0B394B39404C08A2D867809F0EA
:1010A000B394A3FC11C0A0FE06C0B21488F4280CAF
:1010B000922C9B180EC0B21460F4B60180E290E04E
:1010C0000E94C808B394F7CFB21418F42B1802C0CA
:1010D000982C212CA4FE10C0B60180E390E00E9461
:1010E000C808A2FE17C0A1FC03C088E790E002C0B8
:1010F00088E590E0B6010CC08A2D867859F0A1FEF3
:1011000002C08BE201C080E2A7FC8DE2B60190E054
:101110000E94C808891438F4B60180E390E00E9468
:10112000C8089A94F7CF8A94F301E80DF11D8081E5
:10113000B60190E00E94C8088110F5CF222009F482
:1011400042CEB60180E290E00E94C8082A94F6CF11
:10115000F6018681978102C08FEF9FEF2B96E2E127
:101160000C94B009FC010590615070400110D8F753
:10117000809590958E0F9F1F0895FC0161507040DF
:1011800001900110D8F7809590958E0F9F1F0895BC
:101190000F931F93CF93DF93FB01238121FD03C0A6
:1011A0008FEF9FEF2CC022FF16C04681578124810C
:1011B00035814217530744F4A081B1819D012F5F0F
:1011C0003F4F318320838C93268137812F5F3F4FA0
:1011D0003783268314C08B01EC01FB010084F18569
:1011E000E02D0995892BE1F6D80116968D919C91F9
:1011F0001797019617969C938E931697CE01DF91C1
:10120000CF911F910F910895FA01AA27283051F12B
:10121000203181F1E8946F936E7F6E5F7F4F8F4F27
:101220009F4FAF4FB1E03ED0B4E03CD0670F781F86
:10123000891F9A1FA11D680F791F8A1F911DA11D6B
:101240006A0F711D811D911DA11D20D009F46894A4
:101250003F912AE0269F11243019305D3193DEF64C
:10126000CF010895462F4770405D4193B3E00FD002
:10127000C9F7F6CF462F4F70405D4A3318F0495DED
:1012800031FD4052419302D0A9F7EACFB4E0A695D0
:101290009795879577956795BA95C9F700976105F2
:1012A000710508959B01AC010A2E06945795479548
:1012B00037952795BA95C9F7620F731F841F951F3D
:1012C000A01D0895052E97FB1EF400940E94790935
:1012D00057FD07D00E94CB0907FC03D04EF40C94B5
:1012E000790950954095309521953F4F4F4F5F4F6D
:1012F000089590958095709561957F4F8F4F9F4F82
:1013000008950E94ED09A59F900DB49F900DA49F94
:10131000800D911D11240895B7FF0C9481090E943E
:101320008109821B930B08952F923F924F925F92F7
:101330006F927F928F929F92AF92BF92CF92DF92E5
:10134000EF92FF920F931F93CF93DF93CDB7DEB74A
:10135000CA1BDB0B0FB6F894DEBF0FBECDBF0994DE
:101360002A88398848885F846E847D848C849B8435
:10137000AA84B984C884DF80EE80FD800C811B8143
:10138000AA81B981CE0FD11D0FB6F894DEBF0FBE72
:10139000CDBFED010895A1E21A2EAA1BBB1BFD01D2
:1013A0000DC0AA1FBB1FEE1FFF1FA217B307E40744
:1013B000F50720F0A21BB30BE40BF50B661F771F9C
:1013C000881F991F1A9469F760957095809590957C
:1013D0009B01AC01BD01CF010895A29FB001B39F55
:1013E000C001A39F700D811D1124911DB29F700D2E
:0C13F000811D1124911D0895F894FFCF79
:1013FC000100000020202020424F502D4954202075
:10140C0020200020205348414B452D4954202000DA
:10141C002564256425642564002020202054574928
:10142C0053542D4954202020002020202050554C6E
:10143C004C2D4954202020200053636F72653A25AF
:10144C0064204C3A256400703A256420743A256473
:10145C00002020202020202B2B2B2B202020202074
:10146C00002020202020202D2D2D2D20202020205C
:10147C00002020202047414D454F5645522020202A
:10148C00200046696E616C53636F72653A25640087
:10149C002020202020424F502D4954202020202055
:1014AC000053746172742048533A25640020202044
:0E14BC002020424547494E21202020202000BC
:00000001FF
